{
  "_format": "hh-sol-artifact-1",
  "contractName": "VegasONE",
  "sourceName": "contracts/vegas-one/VegasONE.sol",
  "abi": [
    {
      "inputs": [
        {
          "internalType": "string",
          "name": "newName",
          "type": "string"
        },
        {
          "internalType": "string",
          "name": "newSymbol",
          "type": "string"
        },
        {
          "internalType": "uint256",
          "name": "newCap",
          "type": "uint256"
        }
      ],
      "stateMutability": "nonpayable",
      "type": "constructor"
    },
    {
      "inputs": [],
      "name": "ErrForbidden",
      "type": "error"
    },
    {
      "inputs": [],
      "name": "ErrGrantRoleToZeroAddress",
      "type": "error"
    },
    {
      "anonymous": false,
      "inputs": [
        {
          "indexed": true,
          "internalType": "address",
          "name": "owner",
          "type": "address"
        },
        {
          "indexed": true,
          "internalType": "address",
          "name": "spender",
          "type": "address"
        },
        {
          "indexed": false,
          "internalType": "uint256",
          "name": "value",
          "type": "uint256"
        }
      ],
      "name": "Approval",
      "type": "event"
    },
    {
      "anonymous": false,
      "inputs": [
        {
          "indexed": true,
          "internalType": "address",
          "name": "token",
          "type": "address"
        },
        {
          "indexed": true,
          "internalType": "address",
          "name": "to",
          "type": "address"
        },
        {
          "indexed": false,
          "internalType": "uint256",
          "name": "amount",
          "type": "uint256"
        }
      ],
      "name": "RecoverERC20",
      "type": "event"
    },
    {
      "anonymous": false,
      "inputs": [
        {
          "indexed": true,
          "internalType": "bytes32",
          "name": "role",
          "type": "bytes32"
        },
        {
          "indexed": true,
          "internalType": "bytes32",
          "name": "previousAdminRole",
          "type": "bytes32"
        },
        {
          "indexed": true,
          "internalType": "bytes32",
          "name": "newAdminRole",
          "type": "bytes32"
        }
      ],
      "name": "RoleAdminChanged",
      "type": "event"
    },
    {
      "anonymous": false,
      "inputs": [
        {
          "indexed": true,
          "internalType": "bytes32",
          "name": "role",
          "type": "bytes32"
        },
        {
          "indexed": true,
          "internalType": "address",
          "name": "account",
          "type": "address"
        },
        {
          "indexed": true,
          "internalType": "address",
          "name": "sender",
          "type": "address"
        }
      ],
      "name": "RoleGranted",
      "type": "event"
    },
    {
      "anonymous": false,
      "inputs": [
        {
          "indexed": true,
          "internalType": "bytes32",
          "name": "role",
          "type": "bytes32"
        },
        {
          "indexed": true,
          "internalType": "address",
          "name": "account",
          "type": "address"
        },
        {
          "indexed": true,
          "internalType": "address",
          "name": "sender",
          "type": "address"
        }
      ],
      "name": "RoleRevoked",
      "type": "event"
    },
    {
      "anonymous": false,
      "inputs": [
        {
          "indexed": true,
          "internalType": "address",
          "name": "from",
          "type": "address"
        },
        {
          "indexed": true,
          "internalType": "address",
          "name": "to",
          "type": "address"
        },
        {
          "indexed": false,
          "internalType": "uint256",
          "name": "value",
          "type": "uint256"
        }
      ],
      "name": "Transfer",
      "type": "event"
    },
    {
      "inputs": [],
      "name": "DEFAULT_ADMIN_ROLE",
      "outputs": [
        {
          "internalType": "bytes32",
          "name": "",
          "type": "bytes32"
        }
      ],
      "stateMutability": "view",
      "type": "function"
    },
    {
      "inputs": [],
      "name": "VERSION",
      "outputs": [
        {
          "internalType": "string",
          "name": "",
          "type": "string"
        }
      ],
      "stateMutability": "view",
      "type": "function"
    },
    {
      "inputs": [
        {
          "internalType": "address",
          "name": "owner",
          "type": "address"
        },
        {
          "internalType": "address",
          "name": "spender",
          "type": "address"
        }
      ],
      "name": "allowance",
      "outputs": [
        {
          "internalType": "uint256",
          "name": "",
          "type": "uint256"
        }
      ],
      "stateMutability": "view",
      "type": "function"
    },
    {
      "inputs": [
        {
          "internalType": "address",
          "name": "spender",
          "type": "address"
        },
        {
          "internalType": "uint256",
          "name": "amount",
          "type": "uint256"
        }
      ],
      "name": "approve",
      "outputs": [
        {
          "internalType": "bool",
          "name": "",
          "type": "bool"
        }
      ],
      "stateMutability": "nonpayable",
      "type": "function"
    },
    {
      "inputs": [
        {
          "internalType": "address",
          "name": "spender",
          "type": "address"
        },
        {
          "internalType": "uint256",
          "name": "amount",
          "type": "uint256"
        }
      ],
      "name": "approveAndCall",
      "outputs": [
        {
          "internalType": "bool",
          "name": "",
          "type": "bool"
        }
      ],
      "stateMutability": "nonpayable",
      "type": "function"
    },
    {
      "inputs": [
        {
          "internalType": "address",
          "name": "spender",
          "type": "address"
        },
        {
          "internalType": "uint256",
          "name": "amount",
          "type": "uint256"
        },
        {
          "internalType": "bytes",
          "name": "data",
          "type": "bytes"
        }
      ],
      "name": "approveAndCall",
      "outputs": [
        {
          "internalType": "bool",
          "name": "",
          "type": "bool"
        }
      ],
      "stateMutability": "nonpayable",
      "type": "function"
    },
    {
      "inputs": [
        {
          "internalType": "address",
          "name": "account",
          "type": "address"
        }
      ],
      "name": "balanceOf",
      "outputs": [
        {
          "internalType": "uint256",
          "name": "",
          "type": "uint256"
        }
      ],
      "stateMutability": "view",
      "type": "function"
    },
    {
      "inputs": [
        {
          "internalType": "uint256",
          "name": "amount",
          "type": "uint256"
        }
      ],
      "name": "burn",
      "outputs": [],
      "stateMutability": "nonpayable",
      "type": "function"
    },
    {
      "inputs": [
        {
          "internalType": "address",
          "name": "account",
          "type": "address"
        },
        {
          "internalType": "uint256",
          "name": "amount",
          "type": "uint256"
        }
      ],
      "name": "burnFrom",
      "outputs": [],
      "stateMutability": "nonpayable",
      "type": "function"
    },
    {
      "inputs": [],
      "name": "cap",
      "outputs": [
        {
          "internalType": "uint256",
          "name": "",
          "type": "uint256"
        }
      ],
      "stateMutability": "view",
      "type": "function"
    },
    {
      "inputs": [],
      "name": "decimals",
      "outputs": [
        {
          "internalType": "uint8",
          "name": "",
          "type": "uint8"
        }
      ],
      "stateMutability": "view",
      "type": "function"
    },
    {
      "inputs": [
        {
          "internalType": "address",
          "name": "spender",
          "type": "address"
        },
        {
          "internalType": "uint256",
          "name": "subtractedValue",
          "type": "uint256"
        }
      ],
      "name": "decreaseAllowance",
      "outputs": [
        {
          "internalType": "bool",
          "name": "",
          "type": "bool"
        }
      ],
      "stateMutability": "nonpayable",
      "type": "function"
    },
    {
      "inputs": [
        {
          "internalType": "bytes32",
          "name": "role",
          "type": "bytes32"
        }
      ],
      "name": "getRoleAdmin",
      "outputs": [
        {
          "internalType": "bytes32",
          "name": "",
          "type": "bytes32"
        }
      ],
      "stateMutability": "view",
      "type": "function"
    },
    {
      "inputs": [
        {
          "internalType": "bytes32",
          "name": "role",
          "type": "bytes32"
        },
        {
          "internalType": "address",
          "name": "account",
          "type": "address"
        }
      ],
      "name": "grantRole",
      "outputs": [],
      "stateMutability": "nonpayable",
      "type": "function"
    },
    {
      "inputs": [
        {
          "internalType": "bytes32",
          "name": "role",
          "type": "bytes32"
        },
        {
          "internalType": "address",
          "name": "account",
          "type": "address"
        }
      ],
      "name": "hasRole",
      "outputs": [
        {
          "internalType": "bool",
          "name": "",
          "type": "bool"
        }
      ],
      "stateMutability": "view",
      "type": "function"
    },
    {
      "inputs": [
        {
          "internalType": "address",
          "name": "spender",
          "type": "address"
        },
        {
          "internalType": "uint256",
          "name": "addedValue",
          "type": "uint256"
        }
      ],
      "name": "increaseAllowance",
      "outputs": [
        {
          "internalType": "bool",
          "name": "",
          "type": "bool"
        }
      ],
      "stateMutability": "nonpayable",
      "type": "function"
    },
    {
      "inputs": [
        {
          "internalType": "address",
          "name": "to",
          "type": "address"
        },
        {
          "internalType": "uint256",
          "name": "amount",
          "type": "uint256"
        }
      ],
      "name": "mint",
      "outputs": [],
      "stateMutability": "nonpayable",
      "type": "function"
    },
    {
      "inputs": [],
      "name": "name",
      "outputs": [
        {
          "internalType": "string",
          "name": "",
          "type": "string"
        }
      ],
      "stateMutability": "view",
      "type": "function"
    },
    {
      "inputs": [
        {
          "internalType": "address",
          "name": "token",
          "type": "address"
        },
        {
          "internalType": "address",
          "name": "to",
          "type": "address"
        },
        {
          "internalType": "uint256",
          "name": "amount",
          "type": "uint256"
        }
      ],
      "name": "recoverERC20",
      "outputs": [],
      "stateMutability": "nonpayable",
      "type": "function"
    },
    {
      "inputs": [
        {
          "internalType": "bytes32",
          "name": "role",
          "type": "bytes32"
        },
        {
          "internalType": "address",
          "name": "account",
          "type": "address"
        }
      ],
      "name": "renounceRole",
      "outputs": [],
      "stateMutability": "nonpayable",
      "type": "function"
    },
    {
      "inputs": [
        {
          "internalType": "bytes32",
          "name": "role",
          "type": "bytes32"
        },
        {
          "internalType": "address",
          "name": "account",
          "type": "address"
        }
      ],
      "name": "revokeRole",
      "outputs": [],
      "stateMutability": "nonpayable",
      "type": "function"
    },
    {
      "inputs": [
        {
          "internalType": "bytes4",
          "name": "interfaceId",
          "type": "bytes4"
        }
      ],
      "name": "supportsInterface",
      "outputs": [
        {
          "internalType": "bool",
          "name": "",
          "type": "bool"
        }
      ],
      "stateMutability": "view",
      "type": "function"
    },
    {
      "inputs": [],
      "name": "symbol",
      "outputs": [
        {
          "internalType": "string",
          "name": "",
          "type": "string"
        }
      ],
      "stateMutability": "view",
      "type": "function"
    },
    {
      "inputs": [],
      "name": "totalSupply",
      "outputs": [
        {
          "internalType": "uint256",
          "name": "",
          "type": "uint256"
        }
      ],
      "stateMutability": "view",
      "type": "function"
    },
    {
      "inputs": [
        {
          "internalType": "address",
          "name": "to",
          "type": "address"
        },
        {
          "internalType": "uint256",
          "name": "amount",
          "type": "uint256"
        }
      ],
      "name": "transfer",
      "outputs": [
        {
          "internalType": "bool",
          "name": "",
          "type": "bool"
        }
      ],
      "stateMutability": "nonpayable",
      "type": "function"
    },
    {
      "inputs": [
        {
          "internalType": "address",
          "name": "newAdmin",
          "type": "address"
        }
      ],
      "name": "transferAdmin",
      "outputs": [],
      "stateMutability": "nonpayable",
      "type": "function"
    },
    {
      "inputs": [
        {
          "internalType": "address",
          "name": "to",
          "type": "address"
        },
        {
          "internalType": "uint256",
          "name": "amount",
          "type": "uint256"
        }
      ],
      "name": "transferAndCall",
      "outputs": [
        {
          "internalType": "bool",
          "name": "",
          "type": "bool"
        }
      ],
      "stateMutability": "nonpayable",
      "type": "function"
    },
    {
      "inputs": [
        {
          "internalType": "address",
          "name": "to",
          "type": "address"
        },
        {
          "internalType": "uint256",
          "name": "amount",
          "type": "uint256"
        },
        {
          "internalType": "bytes",
          "name": "data",
          "type": "bytes"
        }
      ],
      "name": "transferAndCall",
      "outputs": [
        {
          "internalType": "bool",
          "name": "",
          "type": "bool"
        }
      ],
      "stateMutability": "nonpayable",
      "type": "function"
    },
    {
      "inputs": [
        {
          "internalType": "address",
          "name": "from",
          "type": "address"
        },
        {
          "internalType": "address",
          "name": "to",
          "type": "address"
        },
        {
          "internalType": "uint256",
          "name": "amount",
          "type": "uint256"
        }
      ],
      "name": "transferFrom",
      "outputs": [
        {
          "internalType": "bool",
          "name": "",
          "type": "bool"
        }
      ],
      "stateMutability": "nonpayable",
      "type": "function"
    },
    {
      "inputs": [
        {
          "internalType": "address",
          "name": "from",
          "type": "address"
        },
        {
          "internalType": "address",
          "name": "to",
          "type": "address"
        },
        {
          "internalType": "uint256",
          "name": "amount",
          "type": "uint256"
        },
        {
          "internalType": "bytes",
          "name": "data",
          "type": "bytes"
        }
      ],
      "name": "transferFromAndCall",
      "outputs": [
        {
          "internalType": "bool",
          "name": "",
          "type": "bool"
        }
      ],
      "stateMutability": "nonpayable",
      "type": "function"
    },
    {
      "inputs": [
        {
          "internalType": "address",
          "name": "from",
          "type": "address"
        },
        {
          "internalType": "address",
          "name": "to",
          "type": "address"
        },
        {
          "internalType": "uint256",
          "name": "amount",
          "type": "uint256"
        }
      ],
      "name": "transferFromAndCall",
      "outputs": [
        {
          "internalType": "bool",
          "name": "",
          "type": "bool"
        }
      ],
      "stateMutability": "nonpayable",
      "type": "function"
    }
  ],
  "bytecode": "0x60a06040523480156200001157600080fd5b506040516200204c3803806200204c8339810160408190526200003491620002d4565b80838381600390805190602001906200004f9291906200017b565b508051620000659060049060208401906200017b565b50505060008111620000bd5760405162461bcd60e51b815260206004820152601560248201527f45524332304361707065643a2063617020697320300000000000000000000000604482015260640160405180910390fd5b608052620000cd600033620000d6565b50505062000397565b60008281526005602090815260408083206001600160a01b038516845290915290205460ff16620001775760008281526005602090815260408083206001600160a01b03851684529091529020805460ff19166001179055620001363390565b6001600160a01b0316816001600160a01b0316837f2f8788117e7eff1d82e926ec794901d17c78024a50270940304540a733656f0d60405160405180910390a45b5050565b828054620001899062000344565b90600052602060002090601f016020900481019282620001ad5760008555620001f8565b82601f10620001c857805160ff1916838001178555620001f8565b82800160010185558215620001f8579182015b82811115620001f8578251825591602001919060010190620001db565b50620002069291506200020a565b5090565b5b808211156200020657600081556001016200020b565b600082601f83011262000232578081fd5b81516001600160401b03808211156200024f576200024f62000381565b604051601f8301601f19908116603f011681019082821181831017156200027a576200027a62000381565b8160405283815260209250868385880101111562000296578485fd5b8491505b83821015620002b957858201830151818301840152908201906200029a565b83821115620002ca57848385830101525b9695505050505050565b600080600060608486031215620002e9578283fd5b83516001600160401b038082111562000300578485fd5b6200030e8783880162000221565b9450602086015191508082111562000324578384fd5b50620003338682870162000221565b925050604084015190509250925092565b600181811c908216806200035957607f821691505b602082108114156200037b57634e487b7160e01b600052602260045260246000fd5b50919050565b634e487b7160e01b600052604160045260246000fd5b608051611c92620003ba600039600081816102e101526111f90152611c926000f3fe608060405234801561001057600080fd5b50600436106101e55760003560e01c806340c10f191161010f578063a457c2d7116100a2578063d547741f11610071578063d547741f14610422578063d8fbe99414610435578063dd62ed3e14610448578063ffa1ad741461045b57600080fd5b8063a457c2d7146103d6578063a9059cbb146103e9578063c1d34b89146103fc578063cae9ca511461040f57600080fd5b806379cc6790116100de57806379cc6790146103a057806391d14854146103b357806395d89b41146103c6578063a217fddf146103ce57600080fd5b806340c10f191461033e57806342966c681461035157806370a082311461036457806375829def1461038d57600080fd5b8063248a9ca311610187578063355274ea11610156578063355274ea146102df57806336568abe1461030557806339509351146103185780634000aea01461032b57600080fd5b8063248a9ca3146102875780632f2ff15d146102aa578063313ce567146102bd5780633177029f146102cc57600080fd5b80631171bda9116101c35780631171bda91461023a5780631296ee621461024f57806318160ddd1461026257806323b872dd1461027457600080fd5b806301ffc9a7146101ea57806306fdde0314610212578063095ea7b314610227575b600080fd5b6101fd6101f8366004611993565b610480565b60405190151581526020015b60405180910390f35b61021a610491565b6040516102099190611af5565b6101fd6102353660046118bb565b610523565b61024d61024836600461181a565b61053b565b005b6101fd61025d3660046118bb565b610573565b6002545b604051908152602001610209565b6101fd61028236600461181a565b610596565b610266610295366004611959565b60009081526005602052604090206001015490565b61024d6102b8366004611971565b6105ba565b60405160128152602001610209565b6101fd6102da3660046118bb565b6105df565b7f0000000000000000000000000000000000000000000000000000000000000000610266565b61024d610313366004611971565b6105fb565b6101fd6103263660046118bb565b61067e565b6101fd6103393660046118e4565b6106a0565b61024d61034c3660046118bb565b6106d5565b61024d61035f366004611959565b610708565b6102666103723660046117ce565b6001600160a01b031660009081526020819052604090205490565b61024d61039b3660046117ce565b610715565b61024d6103ae3660046118bb565b61075d565b6101fd6103c1366004611971565b610772565b61021a61079d565b610266600081565b6101fd6103e43660046118bb565b6107ac565b6101fd6103f73660046118bb565b610827565b6101fd61040a366004611855565b610835565b6101fd61041d3660046118e4565b610873565b61024d610430366004611971565b6108e5565b6101fd61044336600461181a565b61090a565b6102666104563660046117e8565b610927565b61021a60405180604001604052806006815260200165076312e302e360d41b81525081565b600061048b82610952565b92915050565b6060600380546104a090611bdf565b80601f01602080910402602001604051908101604052809291908181526020018280546104cc90611bdf565b80156105195780601f106104ee57610100808354040283529160200191610519565b820191906000526020600020905b8154815290600101906020018083116104fc57829003601f168201915b5050505050905090565b600033610531818585610977565b5060019392505050565b610546600033610772565b610563576040516311845c2160e01b815260040160405180910390fd5b61056e838383610a9b565b505050565b600061058f8383604051806020016040528060008152506106a0565b9392505050565b6000336105a4858285610afc565b6105af858585610b76565b506001949350505050565b6000828152600560205260409020600101546105d581610d44565b61056e8383610d4e565b600061058f838360405180602001604052806000815250610873565b6001600160a01b03811633146106705760405162461bcd60e51b815260206004820152602f60248201527f416363657373436f6e74726f6c3a2063616e206f6e6c792072656e6f756e636560448201526e103937b632b9903337b91039b2b63360891b60648201526084015b60405180910390fd5b61067a8282610dd4565b5050565b6000336105318185856106918383610927565b61069b9190611b4e565b610977565b60006106ac8484610827565b506106b933858585610e3b565b6105315760405162461bcd60e51b815260040161066790611b08565b336106e1600082610772565b6106fe576040516311845c2160e01b815260040160405180910390fd5b61056e8383610ef9565b6107123382610f03565b50565b600061072081610d44565b6001600160a01b0382166107475760405163cfa3b4d360e01b815260040160405180910390fd5b610752600083610d4e565b61067a600033610dd4565b610768823383610afc565b61067a8282610f03565b60009182526005602090815260408084206001600160a01b0393909316845291905290205460ff1690565b6060600480546104a090611bdf565b600033816107ba8286610927565b90508381101561081a5760405162461bcd60e51b815260206004820152602560248201527f45524332303a2064656372656173656420616c6c6f77616e63652062656c6f77604482015264207a65726f60d81b6064820152608401610667565b6105af8286868403610977565b600033610531818585610b76565b6000610842858585610596565b5061084f85858585610e3b565b6105af5760405162461bcd60e51b815260040161066790611b08565b949350505050565b600061087f8484610523565b5061088b848484611051565b6105315760405162461bcd60e51b815260206004820152602560248201527f455243313336333a205f636865636b416e6443616c6c417070726f7665207265604482015264766572747360d81b6064820152608401610667565b60008281526005602052604090206001015461090081610d44565b61056e8383610dd4565b600061086b84848460405180602001604052806000815250610835565b6001600160a01b03918216600090815260016020908152604080832093909416825291909152205490565b60006001600160e01b03198216637965db0b60e01b148061048b575061048b8261110c565b6001600160a01b0383166109d95760405162461bcd60e51b8152602060048201526024808201527f45524332303a20617070726f76652066726f6d20746865207a65726f206164646044820152637265737360e01b6064820152608401610667565b6001600160a01b038216610a3a5760405162461bcd60e51b815260206004820152602260248201527f45524332303a20617070726f766520746f20746865207a65726f206164647265604482015261737360f01b6064820152608401610667565b6001600160a01b0383811660008181526001602090815260408083209487168084529482529182902085905590518481527f8c5be1e5ebec7d5bd14f71427d1e84f3dd0314c0f7b2291e5b200ac8c7c3b925910160405180910390a3505050565b816001600160a01b0316836001600160a01b03167f6e0216a77a5b0aae083152882a2e812b20c2045a361c64e79c88190de8da272683604051610ae091815260200190565b60405180910390a361056e6001600160a01b0384168383611141565b6000610b088484610927565b90506000198114610b705781811015610b635760405162461bcd60e51b815260206004820152601d60248201527f45524332303a20696e73756666696369656e7420616c6c6f77616e63650000006044820152606401610667565b610b708484848403610977565b50505050565b6001600160a01b038316610bda5760405162461bcd60e51b815260206004820152602560248201527f45524332303a207472616e736665722066726f6d20746865207a65726f206164604482015264647265737360d81b6064820152608401610667565b6001600160a01b038216610c3c5760405162461bcd60e51b815260206004820152602360248201527f45524332303a207472616e7366657220746f20746865207a65726f206164647260448201526265737360e81b6064820152608401610667565b6001600160a01b03831660009081526020819052604090205481811015610cb45760405162461bcd60e51b815260206004820152602660248201527f45524332303a207472616e7366657220616d6f756e7420657863656564732062604482015265616c616e636560d01b6064820152608401610667565b6001600160a01b03808516600090815260208190526040808220858503905591851681529081208054849290610ceb908490611b4e565b92505081905550826001600160a01b0316846001600160a01b03167fddf252ad1be2c89b69c2b068fc378daa952ba7f163c4a11628f55a4df523b3ef84604051610d3791815260200190565b60405180910390a3610b70565b6107128133611193565b610d588282610772565b61067a5760008281526005602090815260408083206001600160a01b03851684529091529020805460ff19166001179055610d903390565b6001600160a01b0316816001600160a01b0316837f2f8788117e7eff1d82e926ec794901d17c78024a50270940304540a733656f0d60405160405180910390a45050565b610dde8282610772565b1561067a5760008281526005602090815260408083206001600160a01b0385168085529252808320805460ff1916905551339285917ff6391f5c32d9c69d2a47ea670b442974b53935d1edc7fd64eb21e047a839171b9190a45050565b60006001600160a01b0384163b610e545750600061086b565b604051632229f29760e21b81526000906001600160a01b038616906388a7ca5c90610e899033908a9089908990600401611a88565b602060405180830381600087803b158015610ea357600080fd5b505af1158015610eb7573d6000803e3d6000fd5b505050506040513d601f19601f82011682018060405250810190610edb91906119af565b6001600160e01b031916632229f29760e21b14915050949350505050565b61067a82826111f7565b6001600160a01b038216610f635760405162461bcd60e51b815260206004820152602160248201527f45524332303a206275726e2066726f6d20746865207a65726f206164647265736044820152607360f81b6064820152608401610667565b6001600160a01b03821660009081526020819052604090205481811015610fd75760405162461bcd60e51b815260206004820152602260248201527f45524332303a206275726e20616d6f756e7420657863656564732062616c616e604482015261636560f01b6064820152608401610667565b6001600160a01b0383166000908152602081905260408120838303905560028054849290611006908490611b85565b90915550506040518281526000906001600160a01b038516907fddf252ad1be2c89b69c2b068fc378daa952ba7f163c4a11628f55a4df523b3ef9060200160405180910390a3505050565b60006001600160a01b0384163b61106a5750600061058f565b6040516307b04a2d60e41b81526000906001600160a01b03861690637b04a2d09061109d90339088908890600401611ac5565b602060405180830381600087803b1580156110b757600080fd5b505af11580156110cb573d6000803e3d6000fd5b505050506040513d601f19601f820116820180604052508101906110ef91906119af565b6001600160e01b0319166307b04a2d60e41b149150509392505050565b60006001600160e01b0319821663b0202a1160e01b148061048b57506301ffc9a760e01b6001600160e01b031983161461048b565b604080516001600160a01b038416602482015260448082018490528251808303909101815260649091019091526020810180516001600160e01b031663a9059cbb60e01b17905261056e908490611284565b61119d8282610772565b61067a576111b5816001600160a01b03166014611356565b6111c0836020611356565b6040516020016111d1929190611a13565b60408051601f198184030181529082905262461bcd60e51b825261066791600401611af5565b7f00000000000000000000000000000000000000000000000000000000000000008161122260025490565b61122c9190611b4e565b111561127a5760405162461bcd60e51b815260206004820152601960248201527f45524332304361707065643a20636170206578636565646564000000000000006044820152606401610667565b61067a8282611538565b60006112d9826040518060400160405280602081526020017f5361666545524332303a206c6f772d6c6576656c2063616c6c206661696c6564815250856001600160a01b03166116179092919063ffffffff16565b80519091501561056e57808060200190518101906112f79190611939565b61056e5760405162461bcd60e51b815260206004820152602a60248201527f5361666545524332303a204552433230206f7065726174696f6e20646964206e6044820152691bdd081cdd58d8d9595960b21b6064820152608401610667565b60606000611365836002611b66565b611370906002611b4e565b67ffffffffffffffff81111561139657634e487b7160e01b600052604160045260246000fd5b6040519080825280601f01601f1916602001820160405280156113c0576020820181803683370190505b509050600360fc1b816000815181106113e957634e487b7160e01b600052603260045260246000fd5b60200101906001600160f81b031916908160001a905350600f60fb1b8160018151811061142657634e487b7160e01b600052603260045260246000fd5b60200101906001600160f81b031916908160001a905350600061144a846002611b66565b611455906001611b4e565b90505b60018111156114e9576f181899199a1a9b1b9c1cb0b131b232b360811b85600f166010811061149757634e487b7160e01b600052603260045260246000fd5b1a60f81b8282815181106114bb57634e487b7160e01b600052603260045260246000fd5b60200101906001600160f81b031916908160001a90535060049490941c936114e281611bc8565b9050611458565b50831561058f5760405162461bcd60e51b815260206004820181905260248201527f537472696e67733a20686578206c656e67746820696e73756666696369656e746044820152606401610667565b6001600160a01b03821661158e5760405162461bcd60e51b815260206004820152601f60248201527f45524332303a206d696e7420746f20746865207a65726f2061646472657373006044820152606401610667565b80600260008282546115a09190611b4e565b90915550506001600160a01b038216600090815260208190526040812080548392906115cd908490611b4e565b90915550506040518181526001600160a01b038316906000907fddf252ad1be2c89b69c2b068fc378daa952ba7f163c4a11628f55a4df523b3ef9060200160405180910390a35050565b606061086b8484600085856001600160a01b0385163b6116795760405162461bcd60e51b815260206004820152601d60248201527f416464726573733a2063616c6c20746f206e6f6e2d636f6e74726163740000006044820152606401610667565b600080866001600160a01b0316858760405161169591906119f7565b60006040518083038185875af1925050503d80600081146116d2576040519150601f19603f3d011682016040523d82523d6000602084013e6116d7565b606091505b50915091506116e78282866116f2565b979650505050505050565b6060831561170157508161058f565b8251156117115782518084602001fd5b8160405162461bcd60e51b81526004016106679190611af5565b80356001600160a01b038116811461174257600080fd5b919050565b600082601f830112611757578081fd5b813567ffffffffffffffff8082111561177257611772611c30565b604051601f8301601f19908116603f0116810190828211818310171561179a5761179a611c30565b816040528381528660208588010111156117b2578485fd5b8360208701602083013792830160200193909352509392505050565b6000602082840312156117df578081fd5b61058f8261172b565b600080604083850312156117fa578081fd5b6118038361172b565b91506118116020840161172b565b90509250929050565b60008060006060848603121561182e578081fd5b6118378461172b565b92506118456020850161172b565b9150604084013590509250925092565b6000806000806080858703121561186a578081fd5b6118738561172b565b93506118816020860161172b565b925060408501359150606085013567ffffffffffffffff8111156118a3578182fd5b6118af87828801611747565b91505092959194509250565b600080604083850312156118cd578182fd5b6118d68361172b565b946020939093013593505050565b6000806000606084860312156118f8578283fd5b6119018461172b565b925060208401359150604084013567ffffffffffffffff811115611923578182fd5b61192f86828701611747565b9150509250925092565b60006020828403121561194a578081fd5b8151801515811461058f578182fd5b60006020828403121561196a578081fd5b5035919050565b60008060408385031215611983578182fd5b823591506118116020840161172b565b6000602082840312156119a4578081fd5b813561058f81611c46565b6000602082840312156119c0578081fd5b815161058f81611c46565b600081518084526119e3816020860160208601611b9c565b601f01601f19169290920160200192915050565b60008251611a09818460208701611b9c565b9190910192915050565b7f416363657373436f6e74726f6c3a206163636f756e7420000000000000000000815260008351611a4b816017850160208801611b9c565b7001034b99036b4b9b9b4b733903937b6329607d1b6017918401918201528351611a7c816028840160208801611b9c565b01602801949350505050565b6001600160a01b0385811682528416602082015260408101839052608060608201819052600090611abb908301846119cb565b9695505050505050565b60018060a01b0384168152826020820152606060408201526000611aec60608301846119cb565b95945050505050565b60208152600061058f60208301846119cb565b60208082526026908201527f455243313336333a205f636865636b416e6443616c6c5472616e73666572207260408201526565766572747360d01b606082015260800190565b60008219821115611b6157611b61611c1a565b500190565b6000816000190483118215151615611b8057611b80611c1a565b500290565b600082821015611b9757611b97611c1a565b500390565b60005b83811015611bb7578181015183820152602001611b9f565b83811115610b705750506000910152565b600081611bd757611bd7611c1a565b506000190190565b600181811c90821680611bf357607f821691505b60208210811415611c1457634e487b7160e01b600052602260045260246000fd5b50919050565b634e487b7160e01b600052601160045260246000fd5b634e487b7160e01b600052604160045260246000fd5b6001600160e01b03198116811461071257600080fdfea26469706673582212200cc36c5e6ea02a111125219b1759a8757e867dc27fdc4dbbbc5e1daf7554438964736f6c63430008040033",
  "linkReferences": {},
  "deployedLinkReferences": {}
}